{
    "_format": "hh-sol-artifact-1",
    "contractName": "MagnifyCashSBT",
    "sourceName": "contracts/MagnifyCashSBT.sol",
    "abi": [
        {
            "inputs": [],
            "stateMutability": "nonpayable",
            "type": "constructor"
        },
        {
            "inputs": [],
            "name": "AccessControlBadConfirmation",
            "type": "error"
        },
        {
            "inputs": [
                {
                    "internalType": "address",
                    "name": "account",
                    "type": "address"
                },
                {
                    "internalType": "bytes32",
                    "name": "neededRole",
                    "type": "bytes32"
                }
            ],
            "name": "AccessControlUnauthorizedAccount",
            "type": "error"
        },
        {
            "inputs": [
                {
                    "internalType": "address",
                    "name": "account",
                    "type": "address"
                },
                {
                    "internalType": "uint256",
                    "name": "tokenID",
                    "type": "uint256"
                }
            ],
            "name": "AlreadyVerified",
            "type": "error"
        },
        {
            "inputs": [
                {
                    "internalType": "uint256",
                    "name": "tokenID",
                    "type": "uint256"
                }
            ],
            "name": "DataAlreadySetFor",
            "type": "error"
        },
        {
            "inputs": [
                {
                    "internalType": "address",
                    "name": "sender",
                    "type": "address"
                },
                {
                    "internalType": "uint256",
                    "name": "tokenId",
                    "type": "uint256"
                },
                {
                    "internalType": "address",
                    "name": "owner",
                    "type": "address"
                }
            ],
            "name": "ERC721IncorrectOwner",
            "type": "error"
        },
        {
            "inputs": [
                {
                    "internalType": "address",
                    "name": "operator",
                    "type": "address"
                },
                {
                    "internalType": "uint256",
                    "name": "tokenId",
                    "type": "uint256"
                }
            ],
            "name": "ERC721InsufficientApproval",
            "type": "error"
        },
        {
            "inputs": [
                {
                    "internalType": "address",
                    "name": "approver",
                    "type": "address"
                }
            ],
            "name": "ERC721InvalidApprover",
            "type": "error"
        },
        {
            "inputs": [
                {
                    "internalType": "address",
                    "name": "operator",
                    "type": "address"
                }
            ],
            "name": "ERC721InvalidOperator",
            "type": "error"
        },
        {
            "inputs": [
                {
                    "internalType": "address",
                    "name": "owner",
                    "type": "address"
                }
            ],
            "name": "ERC721InvalidOwner",
            "type": "error"
        },
        {
            "inputs": [
                {
                    "internalType": "address",
                    "name": "receiver",
                    "type": "address"
                }
            ],
            "name": "ERC721InvalidReceiver",
            "type": "error"
        },
        {
            "inputs": [
                {
                    "internalType": "address",
                    "name": "sender",
                    "type": "address"
                }
            ],
            "name": "ERC721InvalidSender",
            "type": "error"
        },
        {
            "inputs": [
                {
                    "internalType": "uint256",
                    "name": "tokenId",
                    "type": "uint256"
                }
            ],
            "name": "ERC721NonexistentToken",
            "type": "error"
        },
        {
            "inputs": [],
            "name": "EmptyData",
            "type": "error"
        },
        {
            "inputs": [],
            "name": "EmptyURI",
            "type": "error"
        },
        {
            "inputs": [],
            "name": "InvalidInitialization",
            "type": "error"
        },
        {
            "inputs": [],
            "name": "NonTransferable",
            "type": "error"
        },
        {
            "inputs": [],
            "name": "NotInitializing",
            "type": "error"
        },
        {
            "inputs": [
                {
                    "internalType": "address",
                    "name": "account",
                    "type": "address"
                }
            ],
            "name": "UnknownAccount",
            "type": "error"
        },
        {
            "inputs": [],
            "name": "UnknownVerification",
            "type": "error"
        },
        {
            "inputs": [],
            "name": "ZeroAddress",
            "type": "error"
        },
        {
            "anonymous": false,
            "inputs": [
                {
                    "indexed": true,
                    "internalType": "address",
                    "name": "owner",
                    "type": "address"
                },
                {
                    "indexed": true,
                    "internalType": "address",
                    "name": "approved",
                    "type": "address"
                },
                {
                    "indexed": true,
                    "internalType": "uint256",
                    "name": "tokenId",
                    "type": "uint256"
                }
            ],
            "name": "Approval",
            "type": "event"
        },
        {
            "anonymous": false,
            "inputs": [
                {
                    "indexed": true,
                    "internalType": "address",
                    "name": "owner",
                    "type": "address"
                },
                {
                    "indexed": true,
                    "internalType": "address",
                    "name": "operator",
                    "type": "address"
                },
                {
                    "indexed": false,
                    "internalType": "bool",
                    "name": "approved",
                    "type": "bool"
                }
            ],
            "name": "ApprovalForAll",
            "type": "event"
        },
        {
            "anonymous": false,
            "inputs": [
                {
                    "indexed": false,
                    "internalType": "string",
                    "name": "uri",
                    "type": "string"
                }
            ],
            "name": "BaseURISet",
            "type": "event"
        },
        {
            "anonymous": false,
            "inputs": [
                {
                    "indexed": false,
                    "internalType": "uint64",
                    "name": "version",
                    "type": "uint64"
                }
            ],
            "name": "Initialized",
            "type": "event"
        },
        {
            "anonymous": false,
            "inputs": [
                {
                    "indexed": true,
                    "internalType": "bytes32",
                    "name": "role",
                    "type": "bytes32"
                },
                {
                    "indexed": true,
                    "internalType": "bytes32",
                    "name": "previousAdminRole",
                    "type": "bytes32"
                },
                {
                    "indexed": true,
                    "internalType": "bytes32",
                    "name": "newAdminRole",
                    "type": "bytes32"
                }
            ],
            "name": "RoleAdminChanged",
            "type": "event"
        },
        {
            "anonymous": false,
            "inputs": [
                {
                    "indexed": true,
                    "internalType": "bytes32",
                    "name": "role",
                    "type": "bytes32"
                },
                {
                    "indexed": true,
                    "internalType": "address",
                    "name": "account",
                    "type": "address"
                },
                {
                    "indexed": true,
                    "internalType": "address",
                    "name": "sender",
                    "type": "address"
                }
            ],
            "name": "RoleGranted",
            "type": "event"
        },
        {
            "anonymous": false,
            "inputs": [
                {
                    "indexed": true,
                    "internalType": "bytes32",
                    "name": "role",
                    "type": "bytes32"
                },
                {
                    "indexed": true,
                    "internalType": "address",
                    "name": "account",
                    "type": "address"
                },
                {
                    "indexed": true,
                    "internalType": "address",
                    "name": "sender",
                    "type": "address"
                }
            ],
            "name": "RoleRevoked",
            "type": "event"
        },
        {
            "anonymous": false,
            "inputs": [
                {
                    "indexed": true,
                    "internalType": "address",
                    "name": "from",
                    "type": "address"
                },
                {
                    "indexed": true,
                    "internalType": "address",
                    "name": "to",
                    "type": "address"
                },
                {
                    "indexed": true,
                    "internalType": "uint256",
                    "name": "tokenId",
                    "type": "uint256"
                }
            ],
            "name": "Transfer",
            "type": "event"
        },
        {
            "inputs": [],
            "name": "BACKEND_ROLE",
            "outputs": [
                {
                    "internalType": "bytes32",
                    "name": "",
                    "type": "bytes32"
                }
            ],
            "stateMutability": "view",
            "type": "function"
        },
        {
            "inputs": [],
            "name": "DEFAULT_ADMIN_ROLE",
            "outputs": [
                {
                    "internalType": "bytes32",
                    "name": "",
                    "type": "bytes32"
                }
            ],
            "stateMutability": "view",
            "type": "function"
        },
        {
            "inputs": [
                {
                    "internalType": "string",
                    "name": "_data",
                    "type": "string"
                }
            ],
            "name": "accountByVerification",
            "outputs": [
                {
                    "internalType": "address",
                    "name": "",
                    "type": "address"
                }
            ],
            "stateMutability": "view",
            "type": "function"
        },
        {
            "inputs": [
                {
                    "internalType": "address",
                    "name": "to",
                    "type": "address"
                },
                {
                    "internalType": "uint256",
                    "name": "tokenId",
                    "type": "uint256"
                }
            ],
            "name": "approve",
            "outputs": [],
            "stateMutability": "nonpayable",
            "type": "function"
        },
        {
            "inputs": [
                {
                    "internalType": "address",
                    "name": "owner",
                    "type": "address"
                }
            ],
            "name": "balanceOf",
            "outputs": [
                {
                    "internalType": "uint256",
                    "name": "",
                    "type": "uint256"
                }
            ],
            "stateMutability": "view",
            "type": "function"
        },
        {
            "inputs": [],
            "name": "baseURI",
            "outputs": [
                {
                    "internalType": "string",
                    "name": "",
                    "type": "string"
                }
            ],
            "stateMutability": "view",
            "type": "function"
        },
        {
            "inputs": [
                {
                    "internalType": "uint256",
                    "name": "tokenId",
                    "type": "uint256"
                }
            ],
            "name": "getApproved",
            "outputs": [
                {
                    "internalType": "address",
                    "name": "",
                    "type": "address"
                }
            ],
            "stateMutability": "view",
            "type": "function"
        },
        {
            "inputs": [
                {
                    "internalType": "bytes32",
                    "name": "role",
                    "type": "bytes32"
                }
            ],
            "name": "getRoleAdmin",
            "outputs": [
                {
                    "internalType": "bytes32",
                    "name": "",
                    "type": "bytes32"
                }
            ],
            "stateMutability": "view",
            "type": "function"
        },
        {
            "inputs": [
                {
                    "internalType": "bytes32",
                    "name": "role",
                    "type": "bytes32"
                },
                {
                    "internalType": "address",
                    "name": "account",
                    "type": "address"
                }
            ],
            "name": "grantRole",
            "outputs": [],
            "stateMutability": "nonpayable",
            "type": "function"
        },
        {
            "inputs": [
                {
                    "internalType": "bytes32",
                    "name": "role",
                    "type": "bytes32"
                },
                {
                    "internalType": "address",
                    "name": "account",
                    "type": "address"
                }
            ],
            "name": "hasRole",
            "outputs": [
                {
                    "internalType": "bool",
                    "name": "",
                    "type": "bool"
                }
            ],
            "stateMutability": "view",
            "type": "function"
        },
        {
            "inputs": [
                {
                    "internalType": "address",
                    "name": "_defaultAdmin",
                    "type": "address"
                }
            ],
            "name": "initialize",
            "outputs": [],
            "stateMutability": "nonpayable",
            "type": "function"
        },
        {
            "inputs": [
                {
                    "internalType": "address",
                    "name": "owner",
                    "type": "address"
                },
                {
                    "internalType": "address",
                    "name": "operator",
                    "type": "address"
                }
            ],
            "name": "isApprovedForAll",
            "outputs": [
                {
                    "internalType": "bool",
                    "name": "",
                    "type": "bool"
                }
            ],
            "stateMutability": "view",
            "type": "function"
        },
        {
            "inputs": [
                {
                    "internalType": "address",
                    "name": "_to",
                    "type": "address"
                },
                {
                    "internalType": "string",
                    "name": "_data",
                    "type": "string"
                }
            ],
            "name": "mint",
            "outputs": [
                {
                    "internalType": "uint256",
                    "name": "",
                    "type": "uint256"
                }
            ],
            "stateMutability": "nonpayable",
            "type": "function"
        },
        {
            "inputs": [],
            "name": "name",
            "outputs": [
                {
                    "internalType": "string",
                    "name": "",
                    "type": "string"
                }
            ],
            "stateMutability": "view",
            "type": "function"
        },
        {
            "inputs": [],
            "name": "nextTokenID",
            "outputs": [
                {
                    "internalType": "uint256",
                    "name": "",
                    "type": "uint256"
                }
            ],
            "stateMutability": "view",
            "type": "function"
        },
        {
            "inputs": [
                {
                    "internalType": "uint256",
                    "name": "tokenId",
                    "type": "uint256"
                }
            ],
            "name": "ownerOf",
            "outputs": [
                {
                    "internalType": "address",
                    "name": "",
                    "type": "address"
                }
            ],
            "stateMutability": "view",
            "type": "function"
        },
        {
            "inputs": [
                {
                    "internalType": "bytes32",
                    "name": "role",
                    "type": "bytes32"
                },
                {
                    "internalType": "address",
                    "name": "callerConfirmation",
                    "type": "address"
                }
            ],
            "name": "renounceRole",
            "outputs": [],
            "stateMutability": "nonpayable",
            "type": "function"
        },
        {
            "inputs": [
                {
                    "internalType": "bytes32",
                    "name": "role",
                    "type": "bytes32"
                },
                {
                    "internalType": "address",
                    "name": "account",
                    "type": "address"
                }
            ],
            "name": "revokeRole",
            "outputs": [],
            "stateMutability": "nonpayable",
            "type": "function"
        },
        {
            "inputs": [
                {
                    "internalType": "address",
                    "name": "from",
                    "type": "address"
                },
                {
                    "internalType": "address",
                    "name": "to",
                    "type": "address"
                },
                {
                    "internalType": "uint256",
                    "name": "tokenId",
                    "type": "uint256"
                }
            ],
            "name": "safeTransferFrom",
            "outputs": [],
            "stateMutability": "nonpayable",
            "type": "function"
        },
        {
            "inputs": [
                {
                    "internalType": "address",
                    "name": "from",
                    "type": "address"
                },
                {
                    "internalType": "address",
                    "name": "to",
                    "type": "address"
                },
                {
                    "internalType": "uint256",
                    "name": "tokenId",
                    "type": "uint256"
                },
                {
                    "internalType": "bytes",
                    "name": "data",
                    "type": "bytes"
                }
            ],
            "name": "safeTransferFrom",
            "outputs": [],
            "stateMutability": "nonpayable",
            "type": "function"
        },
        {
            "inputs": [
                {
                    "internalType": "address",
                    "name": "operator",
                    "type": "address"
                },
                {
                    "internalType": "bool",
                    "name": "approved",
                    "type": "bool"
                }
            ],
            "name": "setApprovalForAll",
            "outputs": [],
            "stateMutability": "nonpayable",
            "type": "function"
        },
        {
            "inputs": [
                {
                    "internalType": "string",
                    "name": "_uri",
                    "type": "string"
                }
            ],
            "name": "setBaseURI",
            "outputs": [],
            "stateMutability": "nonpayable",
            "type": "function"
        },
        {
            "inputs": [
                {
                    "internalType": "bytes4",
                    "name": "_interfaceId",
                    "type": "bytes4"
                }
            ],
            "name": "supportsInterface",
            "outputs": [
                {
                    "internalType": "bool",
                    "name": "",
                    "type": "bool"
                }
            ],
            "stateMutability": "view",
            "type": "function"
        },
        {
            "inputs": [],
            "name": "symbol",
            "outputs": [
                {
                    "internalType": "string",
                    "name": "",
                    "type": "string"
                }
            ],
            "stateMutability": "view",
            "type": "function"
        },
        {
            "inputs": [
                {
                    "internalType": "address",
                    "name": "_account",
                    "type": "address"
                }
            ],
            "name": "tokenByAccount",
            "outputs": [
                {
                    "internalType": "uint256",
                    "name": "",
                    "type": "uint256"
                }
            ],
            "stateMutability": "view",
            "type": "function"
        },
        {
            "inputs": [
                {
                    "internalType": "string",
                    "name": "_verification",
                    "type": "string"
                }
            ],
            "name": "tokenByVerification",
            "outputs": [
                {
                    "internalType": "uint256",
                    "name": "",
                    "type": "uint256"
                }
            ],
            "stateMutability": "view",
            "type": "function"
        },
        {
            "inputs": [
                {
                    "internalType": "uint256",
                    "name": "tokenId",
                    "type": "uint256"
                }
            ],
            "name": "tokenURI",
            "outputs": [
                {
                    "internalType": "string",
                    "name": "",
                    "type": "string"
                }
            ],
            "stateMutability": "view",
            "type": "function"
        },
        {
            "inputs": [
                {
                    "internalType": "address",
                    "name": "from",
                    "type": "address"
                },
                {
                    "internalType": "address",
                    "name": "to",
                    "type": "address"
                },
                {
                    "internalType": "uint256",
                    "name": "tokenId",
                    "type": "uint256"
                }
            ],
            "name": "transferFrom",
            "outputs": [],
            "stateMutability": "nonpayable",
            "type": "function"
        },
        {
            "inputs": [
                {
                    "internalType": "address",
                    "name": "_account",
                    "type": "address"
                }
            ],
            "name": "verificationByAccount",
            "outputs": [
                {
                    "internalType": "string",
                    "name": "",
                    "type": "string"
                }
            ],
            "stateMutability": "view",
            "type": "function"
        },
        {
            "inputs": [
                {
                    "internalType": "uint256",
                    "name": "_tokenID",
                    "type": "uint256"
                }
            ],
            "name": "verificationByToken",
            "outputs": [
                {
                    "internalType": "string",
                    "name": "",
                    "type": "string"
                }
            ],
            "stateMutability": "view",
            "type": "function"
        },
        {
            "inputs": [
                {
                    "internalType": "address",
                    "name": "_account",
                    "type": "address"
                }
            ],
            "name": "verified",
            "outputs": [
                {
                    "internalType": "bool",
                    "name": "",
                    "type": "bool"
                }
            ],
            "stateMutability": "view",
            "type": "function"
        },
        {
            "inputs": [],
            "name": "version",
            "outputs": [
                {
                    "internalType": "string",
                    "name": "",
                    "type": "string"
                }
            ],
            "stateMutability": "view",
            "type": "function"
        }
    ],
    "bytecode": "0x60806040523461002257610011610026565b6040516124f661015782396124f690f35b5f80fd5b61002e6100a9565b565b61003d9060401c60ff1690565b90565b61003d9054610030565b61003d905b6001600160401b031690565b61003d905461004a565b61003d9061004f906001600160401b031682565b9061008961003d6100a592610065565b82546001600160401b0319166001600160401b03919091161790565b9055565b7ff0c57e16840df040f15088dc2f81fe391c3923bec73e23a9662efc9c229c6a006100d381610040565b610145576100e08161005b565b6001600160401b03919082908116036100f7575050565b816101267fc7f505b2f371ae2175ee4913f4499e1f2633a7b5936321eed1cdaeb6115181d29361014093610079565b604051918291826001600160401b03909116815260200190565b0390a1565b63f92ee8a960e01b5f908152600490fdfe60806040526004361015610011575f80fd5b5f3560e01c806301ffc9a71461021057806306fdde031461020b578063081812fc14610206578063095ea7b3146102015780630db065f4146101fc57806323b872dd146101f7578063248a9ca3146101f25780632f2ff15d146101ed57806336568abe146101e857806342842e0e146101e3578063450ceffe146101de57806354fd4d50146101d957806355f804b3146101d457806359bea482146101cf5780636352211e146101ca5780636c0360eb146101c557806370a08231146101c057806384d92ee4146101bb5780638d2f656c146101b657806391d14854146101b157806392c2becc146101ac57806395d89b41146101a7578063a217fddf146101a2578063a22cb4651461019d578063b88d4fde14610198578063c4d66de814610193578063c87b56dd1461018e578063d0def52114610189578063d547741f14610184578063e7e630041461017f578063e985e9c51461017a5763f101e4810361022857610bb2565b610b8b565b610b54565b610b3b565b610b1f565b610acf565b610ab7565b610a9b565b610a33565b6109e0565b6109b4565b61097b565b61095f565b610943565b610928565b6108ce565b6108b3565b61088e565b610873565b610712565b61069f565b610644565b6104c3565b6104aa565b610491565b610443565b61042a565b6103e6565b6103b4565b610340565b6102e6565b610256565b6001600160e01b031981165b0361022857565b5f80fd5b9050359061023982610215565b565b906020828203126102285761024f9161022c565b90565b9052565b346102285761028461027161026c36600461023b565b610bcd565b6040515b91829182901515815260200190565b0390f35b5f91031261022857565b90825f9392825e0152565b6102be6102c76020936102d1936102b2815190565b80835293849260200190565b95869101610292565b601f01601f191690565b0190565b602080825261024f9291019061029d565b34610228576102f6366004610288565b610284610301610bdf565b604051918291826102d5565b80610221565b905035906102398261030d565b906020828203126102285761024f91610313565b6001600160a01b031690565b346102285761028461035b610356366004610320565b610bf8565b604051918291826001600160a01b03909116815260200190565b6001600160a01b038116610221565b9050359061023982610375565b91906040838203126102285761024f9060206103ad8286610384565b9401610313565b34610228576103cd6103c7366004610391565b90610c0b565b604051005b906020828203126102285761024f91610384565b34610228576102846102716103fc3660046103d2565b610c27565b90916060828403126102285761024f61041a8484610384565b9360406103ad8260208701610384565b34610228576103cd61043d366004610401565b91610ca3565b346102285761028461045e610459366004610320565b610d38565b6040519182918290815260200190565b91906040838203126102285761024f90602061048a8286610313565b9401610384565b34610228576103cd6104a436600461046e565b90610d88565b34610228576103cd6104bd36600461046e565b90610d92565b34610228576103cd6104d6366004610401565b91610dd6565b634e487b7160e01b5f52604160045260245ffd5b90601f01601f191681019081106001600160401b0382111761051157604052565b6104dc565b9061023961052360405190565b92836104f0565b6001600160401b03811161051157602090601f01601f19160190565b90825f939282370152565b909291926105666105618261052a565b610516565b938185528183011161022857610239916020850190610546565b9080601f830112156102285781602061024f93359101610551565b906020828203126102285781356001600160401b0381116102285761024f9201610580565b6102d16105d8926020926105d2815190565b94859290565b93849101610292565b6105f16102d191602094936105c0565b918252565b61060b61060260405190565b928392836105e1565b03902090565b61024f916105f6565b61024f916008021c81565b9061024f915461061a565b5f61063f61024f926004610611565b610625565b346102285761028461045e61065a36600461059b565b610630565b906105f16105618361052a565b610676600561065f565b640312e302e360dc1b602082015290565b61024f61066c565b61024f610687565b61024f61068f565b34610228576106af366004610288565b610284610301610697565b909182601f83011215610228578135916001600160401b03831161022857602001926001830284011161022857565b906020828203126102285781356001600160401b0381116102285761070e92016106ba565b9091565b34610228576103cd6107253660046106e9565b90611013565b61024f61024f61024f9290565b906107429061072b565b5f5260205260405f2090565b634e487b7160e01b5f525f60045260245ffd5b634e487b7160e01b5f52602260045260245ffd5b9060016002830492168015610795575b602083101461079057565b610761565b91607f1691610785565b80545f9392916107bb6107b183610775565b8085529360200190565b916001811690811561080a57506001146107d457505050565b6107e591929394505f5260205f2090565b915f925b8184106107f65750500190565b8054848401526020909301926001016107e9565b92949550505060ff1916825215156020020190565b9061024f9161079f565b906102396108439261083a60405190565b9384809261081f565b03836104f0565b905f1061085a5761024f90610829565b61074e565b5f61086e61024f926003610738565b61084a565b3461022857610284610301610889366004610320565b61085f565b346102285761028461035b6108a4366004610320565b61101d565b61024f5f8061084a565b34610228576108c3366004610288565b6102846103016108a9565b346102285761028461045e6108e43660046103d2565b611026565b61024f90610334906001600160a01b031682565b61024f906108e9565b61024f906108fd565b9061074290610906565b5f61063f61024f92600261090f565b346102285761028461045e61093e3660046103d2565b610919565b346102285761028461035b6109593660046106e9565b906110ca565b346102285761028461027161097536600461046e565b90611117565b346102285761098b366004610288565b6102847f25cf2b509f2a7f322675b2a5322b182f44ad2c03ac941a0af17c9b178f5d5d5f61045e565b34610228576109c4366004610288565b61028461030161114a565b61024f5f61072b565b61024f6109cf565b34610228576109f0366004610288565b61028461045e6109d8565b801515610221565b90503590610239826109fb565b91906040838203126102285761024f906020610a2c8286610384565b9401610a03565b34610228576103cd610a46366004610a10565b90611162565b9060808282031261022857610a618183610384565b92610a6f8260208501610384565b92610a7d8360408301610313565b9260608201356001600160401b0381116102285761024f9201610580565b34610228576103cd610aae366004610a4c565b9291909161116d565b34610228576103cd610aca3660046103d2565b611464565b3461022857610284610301610ae5366004610320565b6114ad565b91909160408184031261022857610b018382610384565b9260208201356001600160401b0381116102285761070e92016106ba565b346102285761028461045e610b35366004610aea565b91611679565b34610228576103cd610b4e36600461046e565b906116a0565b3461022857610284610301610b6a3660046103d2565b6116aa565b91906040838203126102285761024f90602061048a8286610384565b3461022857610284610271610ba1366004610b6f565b906116fc565b61024f5f6001610625565b3461022857610bc2366004610288565b61028461045e610ba7565b61024f90611724565b61024f90610829565b61024f5f5f5160206124815f395f51905f525b01610bd6565b61024f90610c058161174d565b506117a0565b6102399133916117cb565b61024f9081565b61024f9054610c16565b610c3d610c4291610c355f90565b50600261090f565b610c1d565b610c52610c4e5f61072b565b9190565b141590565b61033461024f61024f9290565b61024f90610c57565b6001600160a01b039091168152606081019392610239929091604091610c94906020830152565b01906001600160a01b03169052565b929190610caf5f610c64565b6001600160a01b0381166001600160a01b03831614610d125750610cd5908233916117d8565b906001600160a01b0384166001600160a01b03831603610cf55750509050565b6364283d7b60e01b5f90815293610d0e93506004610c6d565b035ffd5b633250574960e11b5f9081526001600160a01b039091166004526024035ffd5b90610742565b6001610d5f61024f92610d485f90565b505f5f5160206124a15f395f51905f525b01610d32565b01610c1d565b9061023991610d7b610d7682610d38565b61181e565b90610d8591611849565b50565b9061023991610d65565b90610d9c33610334565b6001600160a01b03821603610db457610d85916118d8565b63334bd91960e11b5f908152600490fd5b61024f5f61065f565b61024f610dc5565b909161023992610de4610dce565b9261116d565b9061023991610dfa610d766109cf565b610fa8565b915f1960089290920291821b911b5b9181191691161790565b9190610e2961024f610e319361072b565b908354610dff565b9055565b610239915f91610e18565b818110610e4b575050565b80610e585f600193610e35565b01610e40565b9190601f8111610e6d57505050565b610e7d610239935f5260205f2090565b906020601f840181900483019310610e9f575b6020601f909101040190610e40565b9091508190610e90565b91906001600160401b03821161051157610ecd82610ec78554610775565b85610e5e565b5f90601f8311600114610f0557610e3192915f9183610efa575b50505f19600883021c1916906002021790565b013590505f80610ee7565b90601f19831691610f19855f5260205f2090565b925f5b818110610f5657509160029391856001969410610f3d575b50505002019055565b01355f19601f84166008021c19165b90555f8080610f34565b92936020600181928786013581550195019301610f1c565b906102399291610ea9565b91906102c781610f90816102d19560209181520190565b8095610546565b602080825261024f93910191610f79565b9080610fb6610c4e5f61072b565b146110025781610fe8827ff9c7803e94e0d3c02900d8a90893a6d5e90dd04d32a4cfe825520f82bf9f32f6945f610f6e565b610ffd610ff460405190565b92839283610f97565b0390a1565b63683d806b60e11b5f908152600490fd5b9061023991610dea565b61024f9061174d565b5f5160206124815f395f51905f5261103d5f610c64565b6001600160a01b0381166001600160a01b03841614611067575061024f916003610c3d920161090f565b6322718ad960e21b5f9081526001600160a01b039091166004526024035ffd5b90916102d19083908093610546565b6105f190602094936102d193611087565b909161060b906110b660405190565b93849384611096565b909161024f926110a7565b6110d991610c3d9160046110bf565b6110e25f61072b565b81146110f15761024f9061101d565b63f134cb1b60e01b5f908152600490fd5b61024f905b60ff1690565b61024f9054611102565b61024f915f61113f6111459361112a5f90565b50825f5160206124a15f395f51905f52610d59565b0161090f565b61110d565b61024f60015f5160206124815f395f51905f52610bf2565b610239919033611943565b9061023993929161117f838383610ca3565b33611a4e565b61024f9060401c611107565b61024f9054611185565b61024f905b6001600160401b031690565b61024f905461119b565b6111a061024f61024f9290565b906001600160401b0390610e0e565b6111a061024f61024f926001600160401b031690565b906111f861024f610e31926111d2565b82546111c3565b9068ff00000000000000009060401b610e0e565b9061122361024f610e3192151590565b82546111ff565b610252906111b6565b602081019291610239919061122a565b7ff0c57e16840df040f15088dc2f81fe391c3923bec73e23a9662efc9c229c6a008061127e61127861127483611191565b1590565b916111ac565b926112885f6111b6565b6001600160401b038516148061137f575b6001946112b56112a8876111b6565b916001600160401b031690565b14908161135b575b155b9081611352575b50611341576112ef90826112e65f6112dd886111b6565b960195866111e8565b611332576113f1565b6112f7575050565b7fc7f505b2f371ae2175ee4913f4499e1f2633a7b5936321eed1cdaeb6115181d2916113265f610ffd93611213565b60405191829182611233565b61133c8585611213565b6113f1565b63f92ee8a960e01b5f908152600490fd5b1590505f6112c6565b90506112bf61136930610906565b3b611376610c4e5f61072b565b149190506112bd565b5081611299565b611390600a61065f565b69135051d09bdd0814d09560b21b602082015290565b61024f611386565b6113b8600561065f565b64135094d09560da1b602082015290565b61024f6113ae565b905f1990610e0e565b906113ea61024f610e319261072b565b82546113d1565b61140a6113fc6113a6565b6114046113c9565b90611b74565b611412611b86565b61141e6103345f610c64565b6001600160a01b038216146114535761143e906114396109cf565b611849565b5061023961144c600161072b565b60016113da565b63d92e233d60e01b5f908152600490fd5b61023990611243565b61147b9061024f93926105c0565b906105c0565b6114a192916102399161149360405190565b94859260208401928361146d565b908103825203836104f0565b6114b68161174d565b506114bf611b8e565b80516114cd610c4e5f61072b565b11156114e5576114df61024f92611be2565b90611481565b505061024f610dce565b61024f9392919061151f7f25cf2b509f2a7f322675b2a5322b182f44ad2c03ac941a0af17c9b178f5d5d5f61181e565b611568565b6001600160a01b0390911681526040810192916102399160200152565b634e487b7160e01b5f52601160045260245ffd5b5f1981146115635760010190565b611541565b50919081611578610c4e5f61072b565b1461166857600261158c610c3d858361090f565b611598610c4e5f61072b565b03611642576004906115ae610c3d8585856110bf565b6115ba610c4e5f61072b565b0361161957926115fa94926115fa926115ff61024f966115da6001610c1d565b98899788926115eb61144c85611555565b6115f58483611c73565b61090f565b6113da565b611614838361160f886003610738565b610f6e565b6110bf565b5061162c610c3d5f94610d0e94846110bf565b637b93f4af60e01b845290830190815260200190565b610d0e84611654610c3d825f9561090f565b6307c2c25560e01b84529060048401611524565b6399d8fec960e01b5f908152600490fd5b61024f9291905f6114ef565b9061023991611696610d7682610d38565b90610d85916118d8565b9061023991611685565b6116b8610c3d82600261090f565b906116c25f61072b565b82146116dc57506116d761024f916003610738565b610bd6565b633131bf7960e21b5f9081526001600160a01b039091166004526024035ffd5b61024f916115f56111459261170e5f90565b5060055f5160206124815f395f51905f5261113f565b637965db0b60e01b6001600160e01b0319821614908115611743575090565b61024f9150611c85565b61175681611cd0565b906117636103345f610c64565b6001600160a01b03831614611776575090565b637e27328960e01b5f908152600491909152602490fd5b61024f90610334565b61024f905461178d565b6117c661024f916117ae5f90565b5060045f5160206124815f395f51905f525b01610738565b611796565b9160019161023993611d1a565b91906117e381611cd0565b6117ff6117f26103345f610c64565b916001600160a01b031690565b0361180d5761024f92611e5e565b639cbe235760e01b5f908152600490fd5b610239903390611fa6565b9060ff90610e0e565b9061184261024f610e3192151590565b8254611829565b5f5160206124a15f395f51905f526118646112748484611117565b156118d157600161187f845f61113f86826118849701610d32565b611832565b61189e611898611892339390565b93610906565b91610906565b917f2f8788117e7eff1d82e926ec794901d17c78024a50270940304540a733656f0d6118c960405190565b5f90a4600190565b5050505f90565b5f5160206124a15f395f51905f526118f08383611117565b156118d1575f61187f848261113f868261190a9701610d32565b611918611898611892339390565b917ff6391f5c32d9c69d2a47ea670b442974b53935d1edc7fd64eb21e047a839171b6118c960405190565b5f5160206124815f395f51905f5261195d6103345f610c64565b6001600160a01b038416146119c0576119b1611892836119ac8761187f886115f57f17307eab39ab6107e8899845ad3d59bd9653f200f220920489ca2b5937696c319960056119bb9a0161090f565b610906565b9361027560405190565b0390a3565b630b61174360e31b5f9081526001600160a01b038416600452602490fd5b9050519061023982610215565b906020828203126102285761024f916119de565b6001600160a01b03918216815291166020820152604081019190915260806060820181905261024f9291019061029d565b3d15611a4957611a3f3d61065f565b903d5f602084013e565b606090565b9392909193843b611a61610c4e5f61072b565b11611a6e575b5050505050565b6020925f611a7e6119ac88610906565b92611aa5611a8b60405190565b97889687958694630a85bd0160e11b8652600486016119ff565b03925af15f9181611b2c575b50611b075750611ac6565b5f80808080611a67565b611ace611a30565b8051611adc610c4e5f61072b565b03611aff57633250574960e11b5f9081526001600160a01b038316600452602490fd5b805190602001fd5b611b21630a85bd0160e11b5b916001600160e01b03191690565b03610d125750611abc565b611b4f91925060203d602011611b56575b611b4781836104f0565b8101906119eb565b905f611ab1565b503d611b3d565b9061023991611b6a611fd4565b90610239916120fc565b9061023991611b5d565b610239611fd4565b610239611b7e565b61024f5f610bd6565b369037565b90610239611bb2611bac8461065f565b9361052a565b601f190160208401611b97565b634e487b7160e01b5f52601260045260245ffd5b8115611bdd570490565b611bbf565b611beb81612106565b90611bfc6001926102d1600161072b565b9180611c0784611b9c565b936020018401905b611c1a575b50505090565b8115611c6e57611c53905f1901926f181899199a1a9b1b9c1cb0b131b232b360811b600a82061a8453611c4d600a61072b565b90611bd3565b9081611c61610c4e5f61072b565b14611c6e57909181611c0f565b611c14565b61023991611c7f610dce565b916122a7565b6380ac58cd60e01b6001600160e01b0319821614908115611cb5575b8115611cab575090565b61024f91506122c7565b6001600160e01b03198116635b5e139f60e01b149150611ca1565b6117c661024f91611cde5f90565b5060025f5160206124815f395f51905f526117c0565b906001600160a01b0390610e0e565b90611d1361024f610e3192610906565b8254611cf4565b9193925f5160206124815f395f51905f5290808115611e40575b611d52575b50610239939450906004611d4d9201610738565b611d03565b611d5b8361174d565b90611d686103345f610c64565b6001600160a01b038816141580611e24575b80611e11575b611df35761023995965091600491611d4d9493611da4575b50919250859450611d39565b611dad90610906565b611db686610906565b611dbf8561072b565b917f8c5be1e5ebec7d5bd14f71427d1e84f3dd0314c0f7b2291e5b200ac8c7c3b925611dea60405190565b5f90a45f611d98565b63a9fbf51f60e01b5f9081526001600160a01b038816600452602490fd5b50611e1f61127488846116fc565b611d80565b506001600160a01b0387166001600160a01b0383161415611d7a565b50611e4d6103345f610c64565b6001600160a01b0387161415611d34565b90611ee582611d4d8360025f5160206124815f395f51905f52611ed0611e8384611cd0565b99611e8d5f610c64565b90856001600160a01b0383166001600160a01b03831603611f95575b50506001600160a01b0381166001600160a01b038c1603611f5d576001600160a01b031690565b6001600160a01b03861603611f2b5701610738565b611efa611ef461189285610906565b9161072b565b917fddf252ad1be2c89b69c2b068fc378daa952ba7f163c4a11628f55a4df523b3ef611f2560405190565b5f90a490565b611f58611f38600161072b565b611f52611f48886003860161090f565b916102d183610c1d565b906113da565b6117c0565b611f695f828781611d1a565b6103348b611f52611f87611f7d600161072b565b926003880161090f565b91611f9183610c1d565b0390565b611f9f918d6122db565b5f85611ea9565b90611fb46112748284611117565b611fbc575050565b63e2517d3f60e01b5f90815291610d0e916004611524565b611fdf61127461233d565b611fe557565b631afcd79f60e31b5f908152600490fd5b9061023991612003611fd4565b6120d1565b90612011815190565b906001600160401b0382116105115761202e82610ec78554610775565b602090601f831160011461206657610e3192915f918361205b5750505f19600883021c1916906002021790565b015190505f80610ee7565b601f19831691612079855f5260205f2090565b925f5b8181106120af5750916002939185600196941061209c5750505002019055565b01515f196008601f8516021c1916610f4c565b9193602060018192878701518155019501920161207c565b9061023991612008565b906001610239926120f66120ef5f5160206124815f395f51905f5290565b91826120c7565b016120c7565b9061023991611ff6565b61210f5f61072b565b907a184f03e93ff9f4daa797ed6e38ed64bf6a1f0100000000000000006121358161072b565b821015612285575b506d04ee2d6d415b85acef81000000006121568161072b565b821015612263575b50662386f26fc100006121708161072b565b821015612241575b506305f5e1006121878161072b565b82101561221f575b5061271061219c8161072b565b8210156121fd575b506121af606461072b565b8110156121db575b6121c4610c4e600a61072b565b10156121cd5790565b61024f906102d1600161072b565b6121ec6121f791611c4d606461072b565b916102d1600261072b565b906121b7565b61221891611c4d61220d9261072b565b916102d1600461072b565b905f6121a4565b61223a91611c4d61222f9261072b565b916102d1600861072b565b905f61218f565b61225c91611c4d6122519261072b565b916102d1601061072b565b905f612178565b61227e91611c4d6122739261072b565b916102d1602061072b565b905f61215e565b6122a091611c4d6122959261072b565b916102d1604061072b565b905f61213d565b9061023992916122b78282612366565b336122c15f610c64565b90611a4e565b6122d76301ffc9a760e01b611b13565b1490565b9190916122ec6112748385846123ed565b6122f557505050565b5f93506123076117f261033486610c64565b14831461232657637e27328960e01b835260048301525060248101035ffd5b63177e802f60e01b8352610d0e9160048401611524565b61024f7ff0c57e16840df040f15088dc2f81fe391c3923bec73e23a9662efc9c229c6a00611191565b906123705f610c64565b916001600160a01b0383166001600160a01b038216146123cf576123959183916117d8565b6123a76001600160a01b0383166117f2565b036123af5750565b6339e3563760e11b5f9081526001600160a01b039091166004526024035ffd5b633250574960e11b5f9081526001600160a01b038416600452602490fd5b906123fa6103345f610c64565b6001600160a01b038216141592836124125750505090565b919250906001600160a01b0382166001600160a01b0384161492831561246c575b508215612445575b50505f8080611c14565b6124649192506124576117f2916117a0565b926001600160a01b031690565b145f8061243b565b61247991935082906116fc565b915f61243356fe80bb2b638cc20bc4d0a60d66940f3ab4a00c1d7b313497ca82fb0b4ab007930002dd7bc7dec4dceedda775e58dd541e08a116c6c53815c0bd028192f7b626800a2646970667358221220edb75c9067500121aba282b89a7f79f554e18a9e46cd120cfc60835462f407dd64736f6c634300081c0033",
    "linkReferences": {},
    "deployedLinkReferences": {}
}