{
    "_format": "hh-sol-artifact-1",
    "contractName": "MagnifyCashCollateralNFT",
    "sourceName": "contracts/MagnifyCashCollateralNFT.sol",
    "abi": [
        {
            "inputs": [],
            "stateMutability": "nonpayable",
            "type": "constructor"
        },
        {
            "inputs": [],
            "name": "AccessControlBadConfirmation",
            "type": "error"
        },
        {
            "inputs": [
                {
                    "internalType": "address",
                    "name": "account",
                    "type": "address"
                },
                {
                    "internalType": "bytes32",
                    "name": "neededRole",
                    "type": "bytes32"
                }
            ],
            "name": "AccessControlUnauthorizedAccount",
            "type": "error"
        },
        {
            "inputs": [
                {
                    "internalType": "address",
                    "name": "account",
                    "type": "address"
                },
                {
                    "internalType": "uint256",
                    "name": "collateralID",
                    "type": "uint256"
                }
            ],
            "name": "AccountHasCollateral",
            "type": "error"
        },
        {
            "inputs": [
                {
                    "internalType": "address",
                    "name": "account",
                    "type": "address"
                }
            ],
            "name": "AccountHasNotSBT",
            "type": "error"
        },
        {
            "inputs": [
                {
                    "internalType": "address",
                    "name": "sender",
                    "type": "address"
                },
                {
                    "internalType": "uint256",
                    "name": "tokenId",
                    "type": "uint256"
                },
                {
                    "internalType": "address",
                    "name": "owner",
                    "type": "address"
                }
            ],
            "name": "ERC721IncorrectOwner",
            "type": "error"
        },
        {
            "inputs": [
                {
                    "internalType": "address",
                    "name": "operator",
                    "type": "address"
                },
                {
                    "internalType": "uint256",
                    "name": "tokenId",
                    "type": "uint256"
                }
            ],
            "name": "ERC721InsufficientApproval",
            "type": "error"
        },
        {
            "inputs": [
                {
                    "internalType": "address",
                    "name": "approver",
                    "type": "address"
                }
            ],
            "name": "ERC721InvalidApprover",
            "type": "error"
        },
        {
            "inputs": [
                {
                    "internalType": "address",
                    "name": "operator",
                    "type": "address"
                }
            ],
            "name": "ERC721InvalidOperator",
            "type": "error"
        },
        {
            "inputs": [
                {
                    "internalType": "address",
                    "name": "owner",
                    "type": "address"
                }
            ],
            "name": "ERC721InvalidOwner",
            "type": "error"
        },
        {
            "inputs": [
                {
                    "internalType": "address",
                    "name": "receiver",
                    "type": "address"
                }
            ],
            "name": "ERC721InvalidReceiver",
            "type": "error"
        },
        {
            "inputs": [
                {
                    "internalType": "address",
                    "name": "sender",
                    "type": "address"
                }
            ],
            "name": "ERC721InvalidSender",
            "type": "error"
        },
        {
            "inputs": [
                {
                    "internalType": "uint256",
                    "name": "tokenId",
                    "type": "uint256"
                }
            ],
            "name": "ERC721NonexistentToken",
            "type": "error"
        },
        {
            "inputs": [],
            "name": "EmptyURI",
            "type": "error"
        },
        {
            "inputs": [],
            "name": "EnforcedPause",
            "type": "error"
        },
        {
            "inputs": [],
            "name": "ExpectedPause",
            "type": "error"
        },
        {
            "inputs": [],
            "name": "InvalidInitialization",
            "type": "error"
        },
        {
            "inputs": [],
            "name": "NotInitializing",
            "type": "error"
        },
        {
            "inputs": [],
            "name": "ZeroAddress",
            "type": "error"
        },
        {
            "anonymous": false,
            "inputs": [
                {
                    "indexed": true,
                    "internalType": "address",
                    "name": "owner",
                    "type": "address"
                },
                {
                    "indexed": true,
                    "internalType": "address",
                    "name": "approved",
                    "type": "address"
                },
                {
                    "indexed": true,
                    "internalType": "uint256",
                    "name": "tokenId",
                    "type": "uint256"
                }
            ],
            "name": "Approval",
            "type": "event"
        },
        {
            "anonymous": false,
            "inputs": [
                {
                    "indexed": true,
                    "internalType": "address",
                    "name": "owner",
                    "type": "address"
                },
                {
                    "indexed": true,
                    "internalType": "address",
                    "name": "operator",
                    "type": "address"
                },
                {
                    "indexed": false,
                    "internalType": "bool",
                    "name": "approved",
                    "type": "bool"
                }
            ],
            "name": "ApprovalForAll",
            "type": "event"
        },
        {
            "anonymous": false,
            "inputs": [
                {
                    "indexed": false,
                    "internalType": "string",
                    "name": "uri",
                    "type": "string"
                }
            ],
            "name": "BaseURISet",
            "type": "event"
        },
        {
            "anonymous": false,
            "inputs": [
                {
                    "indexed": false,
                    "internalType": "uint64",
                    "name": "version",
                    "type": "uint64"
                }
            ],
            "name": "Initialized",
            "type": "event"
        },
        {
            "anonymous": false,
            "inputs": [
                {
                    "indexed": false,
                    "internalType": "address",
                    "name": "account",
                    "type": "address"
                }
            ],
            "name": "Paused",
            "type": "event"
        },
        {
            "anonymous": false,
            "inputs": [
                {
                    "indexed": true,
                    "internalType": "bytes32",
                    "name": "role",
                    "type": "bytes32"
                },
                {
                    "indexed": true,
                    "internalType": "bytes32",
                    "name": "previousAdminRole",
                    "type": "bytes32"
                },
                {
                    "indexed": true,
                    "internalType": "bytes32",
                    "name": "newAdminRole",
                    "type": "bytes32"
                }
            ],
            "name": "RoleAdminChanged",
            "type": "event"
        },
        {
            "anonymous": false,
            "inputs": [
                {
                    "indexed": true,
                    "internalType": "bytes32",
                    "name": "role",
                    "type": "bytes32"
                },
                {
                    "indexed": true,
                    "internalType": "address",
                    "name": "account",
                    "type": "address"
                },
                {
                    "indexed": true,
                    "internalType": "address",
                    "name": "sender",
                    "type": "address"
                }
            ],
            "name": "RoleGranted",
            "type": "event"
        },
        {
            "anonymous": false,
            "inputs": [
                {
                    "indexed": true,
                    "internalType": "bytes32",
                    "name": "role",
                    "type": "bytes32"
                },
                {
                    "indexed": true,
                    "internalType": "address",
                    "name": "account",
                    "type": "address"
                },
                {
                    "indexed": true,
                    "internalType": "address",
                    "name": "sender",
                    "type": "address"
                }
            ],
            "name": "RoleRevoked",
            "type": "event"
        },
        {
            "anonymous": false,
            "inputs": [
                {
                    "indexed": false,
                    "internalType": "address",
                    "name": "sbt",
                    "type": "address"
                }
            ],
            "name": "SBTSet",
            "type": "event"
        },
        {
            "anonymous": false,
            "inputs": [
                {
                    "indexed": true,
                    "internalType": "address",
                    "name": "from",
                    "type": "address"
                },
                {
                    "indexed": true,
                    "internalType": "address",
                    "name": "to",
                    "type": "address"
                },
                {
                    "indexed": true,
                    "internalType": "uint256",
                    "name": "tokenId",
                    "type": "uint256"
                }
            ],
            "name": "Transfer",
            "type": "event"
        },
        {
            "anonymous": false,
            "inputs": [
                {
                    "indexed": false,
                    "internalType": "address",
                    "name": "account",
                    "type": "address"
                }
            ],
            "name": "Unpaused",
            "type": "event"
        },
        {
            "inputs": [],
            "name": "BACKEND_ROLE",
            "outputs": [
                {
                    "internalType": "bytes32",
                    "name": "",
                    "type": "bytes32"
                }
            ],
            "stateMutability": "view",
            "type": "function"
        },
        {
            "inputs": [],
            "name": "DEFAULT_ADMIN_ROLE",
            "outputs": [
                {
                    "internalType": "bytes32",
                    "name": "",
                    "type": "bytes32"
                }
            ],
            "stateMutability": "view",
            "type": "function"
        },
        {
            "inputs": [],
            "name": "PAUSER_ROLE",
            "outputs": [
                {
                    "internalType": "bytes32",
                    "name": "",
                    "type": "bytes32"
                }
            ],
            "stateMutability": "view",
            "type": "function"
        },
        {
            "inputs": [
                {
                    "internalType": "address",
                    "name": "to",
                    "type": "address"
                },
                {
                    "internalType": "uint256",
                    "name": "tokenId",
                    "type": "uint256"
                }
            ],
            "name": "approve",
            "outputs": [],
            "stateMutability": "nonpayable",
            "type": "function"
        },
        {
            "inputs": [
                {
                    "internalType": "address",
                    "name": "owner",
                    "type": "address"
                }
            ],
            "name": "balanceOf",
            "outputs": [
                {
                    "internalType": "uint256",
                    "name": "",
                    "type": "uint256"
                }
            ],
            "stateMutability": "view",
            "type": "function"
        },
        {
            "inputs": [],
            "name": "baseURI",
            "outputs": [
                {
                    "internalType": "string",
                    "name": "",
                    "type": "string"
                }
            ],
            "stateMutability": "view",
            "type": "function"
        },
        {
            "inputs": [
                {
                    "internalType": "uint256",
                    "name": "_sbtID",
                    "type": "uint256"
                }
            ],
            "name": "collateralBySBT",
            "outputs": [
                {
                    "internalType": "uint256",
                    "name": "",
                    "type": "uint256"
                }
            ],
            "stateMutability": "view",
            "type": "function"
        },
        {
            "inputs": [
                {
                    "internalType": "uint256",
                    "name": "tokenId",
                    "type": "uint256"
                }
            ],
            "name": "getApproved",
            "outputs": [
                {
                    "internalType": "address",
                    "name": "",
                    "type": "address"
                }
            ],
            "stateMutability": "view",
            "type": "function"
        },
        {
            "inputs": [
                {
                    "internalType": "bytes32",
                    "name": "role",
                    "type": "bytes32"
                }
            ],
            "name": "getRoleAdmin",
            "outputs": [
                {
                    "internalType": "bytes32",
                    "name": "",
                    "type": "bytes32"
                }
            ],
            "stateMutability": "view",
            "type": "function"
        },
        {
            "inputs": [
                {
                    "internalType": "bytes32",
                    "name": "role",
                    "type": "bytes32"
                },
                {
                    "internalType": "address",
                    "name": "account",
                    "type": "address"
                }
            ],
            "name": "grantRole",
            "outputs": [],
            "stateMutability": "nonpayable",
            "type": "function"
        },
        {
            "inputs": [
                {
                    "internalType": "bytes32",
                    "name": "role",
                    "type": "bytes32"
                },
                {
                    "internalType": "address",
                    "name": "account",
                    "type": "address"
                }
            ],
            "name": "hasRole",
            "outputs": [
                {
                    "internalType": "bool",
                    "name": "",
                    "type": "bool"
                }
            ],
            "stateMutability": "view",
            "type": "function"
        },
        {
            "inputs": [
                {
                    "internalType": "address",
                    "name": "_defaultAdmin",
                    "type": "address"
                },
                {
                    "internalType": "address",
                    "name": "_sbt",
                    "type": "address"
                }
            ],
            "name": "initialize",
            "outputs": [],
            "stateMutability": "nonpayable",
            "type": "function"
        },
        {
            "inputs": [
                {
                    "internalType": "address",
                    "name": "owner",
                    "type": "address"
                },
                {
                    "internalType": "address",
                    "name": "operator",
                    "type": "address"
                }
            ],
            "name": "isApprovedForAll",
            "outputs": [
                {
                    "internalType": "bool",
                    "name": "",
                    "type": "bool"
                }
            ],
            "stateMutability": "view",
            "type": "function"
        },
        {
            "inputs": [
                {
                    "internalType": "address",
                    "name": "_to",
                    "type": "address"
                }
            ],
            "name": "mint",
            "outputs": [
                {
                    "internalType": "uint256",
                    "name": "collateralID",
                    "type": "uint256"
                }
            ],
            "stateMutability": "nonpayable",
            "type": "function"
        },
        {
            "inputs": [],
            "name": "name",
            "outputs": [
                {
                    "internalType": "string",
                    "name": "",
                    "type": "string"
                }
            ],
            "stateMutability": "view",
            "type": "function"
        },
        {
            "inputs": [],
            "name": "nextCollateralID",
            "outputs": [
                {
                    "internalType": "uint256",
                    "name": "",
                    "type": "uint256"
                }
            ],
            "stateMutability": "view",
            "type": "function"
        },
        {
            "inputs": [
                {
                    "internalType": "uint256",
                    "name": "tokenId",
                    "type": "uint256"
                }
            ],
            "name": "ownerOf",
            "outputs": [
                {
                    "internalType": "address",
                    "name": "",
                    "type": "address"
                }
            ],
            "stateMutability": "view",
            "type": "function"
        },
        {
            "inputs": [],
            "name": "pause",
            "outputs": [],
            "stateMutability": "nonpayable",
            "type": "function"
        },
        {
            "inputs": [],
            "name": "paused",
            "outputs": [
                {
                    "internalType": "bool",
                    "name": "",
                    "type": "bool"
                }
            ],
            "stateMutability": "view",
            "type": "function"
        },
        {
            "inputs": [
                {
                    "internalType": "bytes32",
                    "name": "role",
                    "type": "bytes32"
                },
                {
                    "internalType": "address",
                    "name": "callerConfirmation",
                    "type": "address"
                }
            ],
            "name": "renounceRole",
            "outputs": [],
            "stateMutability": "nonpayable",
            "type": "function"
        },
        {
            "inputs": [
                {
                    "internalType": "bytes32",
                    "name": "role",
                    "type": "bytes32"
                },
                {
                    "internalType": "address",
                    "name": "account",
                    "type": "address"
                }
            ],
            "name": "revokeRole",
            "outputs": [],
            "stateMutability": "nonpayable",
            "type": "function"
        },
        {
            "inputs": [
                {
                    "internalType": "address",
                    "name": "from",
                    "type": "address"
                },
                {
                    "internalType": "address",
                    "name": "to",
                    "type": "address"
                },
                {
                    "internalType": "uint256",
                    "name": "tokenId",
                    "type": "uint256"
                }
            ],
            "name": "safeTransferFrom",
            "outputs": [],
            "stateMutability": "nonpayable",
            "type": "function"
        },
        {
            "inputs": [
                {
                    "internalType": "address",
                    "name": "from",
                    "type": "address"
                },
                {
                    "internalType": "address",
                    "name": "to",
                    "type": "address"
                },
                {
                    "internalType": "uint256",
                    "name": "tokenId",
                    "type": "uint256"
                },
                {
                    "internalType": "bytes",
                    "name": "data",
                    "type": "bytes"
                }
            ],
            "name": "safeTransferFrom",
            "outputs": [],
            "stateMutability": "nonpayable",
            "type": "function"
        },
        {
            "inputs": [],
            "name": "sbt",
            "outputs": [
                {
                    "internalType": "contract IMagnifyCashSBT",
                    "name": "",
                    "type": "address"
                }
            ],
            "stateMutability": "view",
            "type": "function"
        },
        {
            "inputs": [
                {
                    "internalType": "uint256",
                    "name": "_collateralID",
                    "type": "uint256"
                }
            ],
            "name": "sbtByCollateral",
            "outputs": [
                {
                    "internalType": "uint256",
                    "name": "",
                    "type": "uint256"
                }
            ],
            "stateMutability": "view",
            "type": "function"
        },
        {
            "inputs": [
                {
                    "internalType": "address",
                    "name": "operator",
                    "type": "address"
                },
                {
                    "internalType": "bool",
                    "name": "approved",
                    "type": "bool"
                }
            ],
            "name": "setApprovalForAll",
            "outputs": [],
            "stateMutability": "nonpayable",
            "type": "function"
        },
        {
            "inputs": [
                {
                    "internalType": "string",
                    "name": "_uri",
                    "type": "string"
                }
            ],
            "name": "setBaseURI",
            "outputs": [],
            "stateMutability": "nonpayable",
            "type": "function"
        },
        {
            "inputs": [
                {
                    "internalType": "address",
                    "name": "_sbt",
                    "type": "address"
                }
            ],
            "name": "setSBT",
            "outputs": [],
            "stateMutability": "nonpayable",
            "type": "function"
        },
        {
            "inputs": [
                {
                    "internalType": "bytes4",
                    "name": "_interfaceID",
                    "type": "bytes4"
                }
            ],
            "name": "supportsInterface",
            "outputs": [
                {
                    "internalType": "bool",
                    "name": "",
                    "type": "bool"
                }
            ],
            "stateMutability": "view",
            "type": "function"
        },
        {
            "inputs": [],
            "name": "symbol",
            "outputs": [
                {
                    "internalType": "string",
                    "name": "",
                    "type": "string"
                }
            ],
            "stateMutability": "view",
            "type": "function"
        },
        {
            "inputs": [
                {
                    "internalType": "uint256",
                    "name": "tokenId",
                    "type": "uint256"
                }
            ],
            "name": "tokenURI",
            "outputs": [
                {
                    "internalType": "string",
                    "name": "",
                    "type": "string"
                }
            ],
            "stateMutability": "view",
            "type": "function"
        },
        {
            "inputs": [
                {
                    "internalType": "address",
                    "name": "from",
                    "type": "address"
                },
                {
                    "internalType": "address",
                    "name": "to",
                    "type": "address"
                },
                {
                    "internalType": "uint256",
                    "name": "tokenId",
                    "type": "uint256"
                }
            ],
            "name": "transferFrom",
            "outputs": [],
            "stateMutability": "nonpayable",
            "type": "function"
        },
        {
            "inputs": [],
            "name": "unpause",
            "outputs": [],
            "stateMutability": "nonpayable",
            "type": "function"
        },
        {
            "inputs": [],
            "name": "version",
            "outputs": [
                {
                    "internalType": "string",
                    "name": "",
                    "type": "string"
                }
            ],
            "stateMutability": "view",
            "type": "function"
        }
    ],
    "bytecode": "0x60806040523461002257610011610026565b60405161271b610157823961271b90f35b5f80fd5b61002e6100a9565b565b61003d9060401c60ff1690565b90565b61003d9054610030565b61003d905b6001600160401b031690565b61003d905461004a565b61003d9061004f906001600160401b031682565b9061008961003d6100a592610065565b82546001600160401b0319166001600160401b03919091161790565b9055565b7ff0c57e16840df040f15088dc2f81fe391c3923bec73e23a9662efc9c229c6a006100d381610040565b610145576100e08161005b565b6001600160401b03919082908116036100f7575050565b816101267fc7f505b2f371ae2175ee4913f4499e1f2633a7b5936321eed1cdaeb6115181d29361014093610079565b604051918291826001600160401b03909116815260200190565b0390a1565b63f92ee8a960e01b5f908152600490fdfe60806040526004361015610011575f80fd5b5f3560e01c806301ffc9a71461023057806306fdde031461022b578063081812fc14610226578063095ea7b31461022157806323b872dd1461021c578063248a9ca3146102175780632f2ff15d14610212578063300cac261461020d57806336568abe146102085780633f4ba83a1461020357806342842e0e146101fe578063485cc955146101f957806354fd4d50146101f457806355f804b3146101ef5780635c975abb146101ea5780636352211e146101e55780636a627842146101e05780636c0360eb146101db57806370a08231146101d65780637d3b7aa8146101d15780638456cb59146101cc57806391d14854146101c757806392c2becc146101c257806395d89b41146101bd578063994b7548146101b8578063a217fddf146101b3578063a22cb465146101ae578063b1324f7b146101a9578063b88d4fde146101a4578063c87b56dd1461019f578063d547741f1461019a578063dd53533b14610195578063e63ab1e9146101905763e985e9c50361024857610ba2565b610b69565b610b4e565b610b2a565b610b0f565b610af3565b610a2c565b6109aa565b610957565b61092e565b610913565b6108da565b6108be565b6108a6565b61088b565b610861565b610846565b610710565b6106e1565b6106c6565b6106ad565b610638565b610569565b610534565b61051c565b610503565b6104e8565b610482565b610434565b61041b565b6103d4565b610360565b610306565b610276565b6001600160e01b031981165b0361024857565b5f80fd5b9050359061025982610235565b565b906020828203126102485761026f9161024c565b90565b9052565b34610248576102a461029161028c36600461025b565b610bbe565b6040515b91829182901515815260200190565b0390f35b5f91031261024857565b90825f9392825e0152565b6102de6102e76020936102f1936102d2815190565b80835293849260200190565b958691016102b2565b601f01601f191690565b0190565b602080825261026f929101906102bd565b34610248576103163660046102a8565b6102a4610321610bd0565b604051918291826102f5565b80610241565b905035906102598261032d565b906020828203126102485761026f91610333565b6001600160a01b031690565b34610248576102a461037b610376366004610340565b610be9565b604051918291826001600160a01b03909116815260200190565b6001600160a01b038116610241565b9050359061025982610395565b91906040838203126102485761026f9060206103cd82866103a4565b9401610333565b34610248576103ed6103e73660046103b1565b90610bfc565b604051005b90916060828403126102485761026f61040b84846103a4565b9360406103cd82602087016103a4565b34610248576103ed61042e3660046103f2565b91610c53565b34610248576102a461044f61044a366004610340565b610cf9565b6040519182918290815260200190565b91906040838203126102485761026f90602061047b8286610333565b94016103a4565b34610248576103ed61049536600461045f565b90610d49565b61026f61026f61026f9290565b906104b29061049b565b5f5260205260405f2090565b61026f916008021c81565b9061026f91546104be565b5f6104e361026f9260046104a8565b6104c9565b34610248576102a461044f6104fe366004610340565b6104d4565b34610248576103ed61051636600461045f565b90610d53565b346102485761052c3660046102a8565b6103ed610dba565b34610248576103ed6105473660046103f2565b91610dd3565b91906040838203126102485761026f90602061047b82866103a4565b34610248576103ed61057c36600461054d565b90611168565b634e487b7160e01b5f52604160045260245ffd5b90601f01601f1916810190811067ffffffffffffffff8211176105b857604052565b610582565b906102596105ca60405190565b9283610596565b67ffffffffffffffff81116105b857602090601f01601f19160190565b906106006105fb836105d1565b6105bd565b918252565b61060f60056105ee565b640312e302e360dc1b602082015290565b61026f610605565b61026f610620565b61026f610628565b34610248576106483660046102a8565b6102a4610321610630565b909182601f830112156102485781359167ffffffffffffffff831161024857602001926001830284011161024857565b9060208282031261024857813567ffffffffffffffff8111610248576106a99201610653565b9091565b34610248576103ed6106c0366004610683565b9061138d565b34610248576106d63660046102a8565b6102a46102916113aa565b34610248576102a461037b6106f7366004610340565b6113c0565b906020828203126102485761026f916103a4565b34610248576102a461044f6107263660046106fc565b6115c5565b634e487b7160e01b5f525f60045260245ffd5b634e487b7160e01b5f52602260045260245ffd5b9060016002830492168015610772575b602083101461076d57565b61073e565b91607f1691610762565b80545f93929161079861078e83610752565b8085529360200190565b91600181169081156107e757506001146107b157505050565b6107c291929394505f5260205f2090565b915f925b8184106107d35750500190565b8054848401526020909301926001016107c6565b92949550505060ff1916825215156020020190565b9061026f9161077c565b906102596108209261081760405190565b938480926107fc565b0383610596565b905f106108375761026f90610806565b61072b565b61026f5f80610827565b34610248576108563660046102a8565b6102a461032161083c565b34610248576102a461044f6108773660046106fc565b6115d9565b5f6104e361026f9260036104a8565b34610248576102a461044f6108a1366004610340565b61087c565b34610248576108b63660046102a8565b6103ed61166e565b34610248576102a46102916108d436600461045f565b90611676565b34610248576108ea3660046102a8565b6102a47f25cf2b509f2a7f322675b2a5322b182f44ad2c03ac941a0af17c9b178f5d5d5f61044f565b34610248576109233660046102a8565b6102a46103216116a9565b34610248576103ed6109413660046106fc565b61171c565b61026f5f61049b565b61026f610946565b34610248576109673660046102a8565b6102a461044f61094f565b801515610241565b9050359061025982610972565b91906040838203126102485761026f9060206109a382866103a4565b940161097a565b34610248576103ed6109bd366004610987565b90611725565b61026f916008021c6001600160a01b031690565b9061026f91546109c3565b61026f5f60016109d7565b61026f90610354906001600160a01b031682565b61026f906109ed565b61026f90610a01565b61027290610a0a565b6020810192916102599190610a13565b3461024857610a3c3660046102a8565b6102a4610a476109e2565b60405191829182610a1c565b90825f939282370152565b90929192610a6e6105fb826105d1565b938185528183011161024857610259916020850190610a53565b9080601f830112156102485781602061026f93359101610a5e565b9060808282031261024857610ab881836103a4565b92610ac682602085016103a4565b92610ad48360408301610333565b92606082013567ffffffffffffffff81116102485761026f9201610a88565b34610248576103ed610b06366004610aa3565b92919091611730565b34610248576102a4610321610b25366004610340565b6117a9565b34610248576103ed610b3d36600461045f565b90611806565b61026f5f60026104c9565b3461024857610b5e3660046102a8565b6102a461044f610b43565b3461024857610b793660046102a8565b6102a47f65d7a28e3265b37a6474929f336521b332c1681b933f6cb9f3376673440d862a61044f565b34610248576102a4610291610bb836600461054d565b90611810565b61026f9061183d565b61026f90610806565b61026f5f5f5160206126865f395f51905f525b01610bc7565b61026f90610bf681611866565b506118a6565b6102599133916118d1565b61035461026f61026f9290565b61026f90610c07565b6001600160a01b039091168152606081019392610259929091604091610c44906020830152565b01906001600160a01b03169052565b929190610c5f5f610c14565b6001600160a01b0381166001600160a01b03831614610cc25750610c85908233916118de565b906001600160a01b0384166001600160a01b03831603610ca55750509050565b6364283d7b60e01b5f90815293610cbe93506004610c1d565b035ffd5b633250574960e11b5f9081526001600160a01b039091166004526024035ffd5b906104b2565b61026f9081565b61026f9054610ce8565b6001610d2061026f92610d095f90565b505f5f5160206126a65f395f51905f525b01610ce2565b01610cef565b9061025991610d3c610d3782610cf9565b6118e9565b90610d4691611914565b50565b9061025991610d26565b90610d5d33610354565b6001600160a01b03821603610d7557610d46916119a3565b63334bd91960e11b5f908152600490fd5b610daf7f65d7a28e3265b37a6474929f336521b332c1681b933f6cb9f3376673440d862a6118e9565b610259610259611a5d565b610259610d86565b61026f5f6105ee565b61026f610dc2565b909161025992610de1610dcb565b92611730565b61026f9060401c5b60ff1690565b61026f9054610de7565b61026f905b67ffffffffffffffff1690565b61026f9054610dff565b610e0461026f61026f9290565b9067ffffffffffffffff905b9181191691161790565b610e0461026f61026f9267ffffffffffffffff1690565b90610e6561026f610e6c92610e3e565b8254610e28565b9055565b9068ff00000000000000009060401b610e34565b90610e9461026f610e6c92151590565b8254610e70565b61027290610e1b565b6020810192916102599190610e9b565b7ff0c57e16840df040f15088dc2f81fe391c3923bec73e23a9662efc9c229c6a00908190610ef1610eeb610ee784610df5565b1590565b92610e11565b93610efb5f610e1b565b67ffffffffffffffff86161480610ffd575b600195610f2a610f1c88610e1b565b9167ffffffffffffffff1690565b149081610fd5575b155b9081610fcc575b50610fbb57610f649183610f5b5f610f5289610e1b565b97019687610e55565b610fac57611093565b610f6c575050565b7fc7f505b2f371ae2175ee4913f4499e1f2633a7b5936321eed1cdaeb6115181d291610f9b5f610fa793610e84565b60405191829182610ea4565b0390a1565b610fb68686610e84565b611093565b63f92ee8a960e01b5f908152600490fd5b1590505f610f3b565b9050610f34610fe330610a0a565b3b610ff4610ff05f61049b565b9190565b14919050610f32565b5082610f0d565b61100e60096105ee565b68135051d09bdd08125160ba1b602082015290565b61026f611004565b61103560046105ee565b631350925160e21b602082015290565b61026f61102b565b906001600160a01b0390610e34565b9061106c61026f610e6c92610a0a565b825461104d565b905f1990610e34565b9061108c61026f610e6c9261049b565b8254611073565b6110ac61109e611023565b6110a6611045565b90611a7c565b6110b4611a99565b6110bc611aa9565b6110c55f610c14565b6001600160a01b0381166001600160a01b03831614611157576001600160a01b03166001600160a01b03831614611157577fcc6c7fe8024c44aacbd64a60ef19ad3fee30550d8f00fbee772c0eb14c9d2cef9161112c61114092611127610946565b611914565b5061037b61113982610a0a565b600161105c565b0390a1610259611150600161049b565b600261107c565b63d92e233d60e01b5f908152600490fd5b9061025991610eb4565b9061025991611182610d37610946565b611327565b915f1960089290920291821b911b610e34565b91906111ab61026f610e6c9361049b565b908354611187565b610259915f9161119a565b8181106111c9575050565b806111d65f6001936111b3565b016111be565b9190601f81116111eb57505050565b6111fb610259935f5260205f2090565b906020601f84018190048301931061121d575b6020601f9091010401906111be565b909150819061120e565b919067ffffffffffffffff82116105b85761124c826112468554610752565b856111dc565b5f90601f831160011461128457610e6c92915f9183611279575b50505f19600883021c1916906002021790565b013590505f80611266565b90601f19831691611298855f5260205f2090565b925f5b8181106112d5575091600293918560019694106112bc575b50505002019055565b01355f19601f84166008021c19165b90555f80806112b3565b9293602060018192878601358155019501930161129b565b906102599291611227565b91906102e78161130f816102f19560209181520190565b8095610a53565b602080825261026f939101916112f8565b9080611335610ff05f61049b565b1461137c5781611367827ff9c7803e94e0d3c02900d8a90893a6d5e90dd04d32a4cfe825520f82bf9f32f6945f6112ed565b610fa761137360405190565b92839283611316565b63683d806b60e11b5f908152600490fd5b9061025991611172565b61026f90610def565b61026f9054611397565b61026f5f5160206126c65f395f51905f526113a0565b61026f90611866565b61026f91906113f77f25cf2b509f2a7f322675b2a5322b182f44ad2c03ac941a0af17c9b178f5d5d5f6118e9565b61147f565b634e487b7160e01b5f52601160045260245ffd5b5f19811461141e5760010190565b6113fc565b61026f90610354565b61026f9054611423565b905051906102598261032d565b906020828203126102485761026f91611436565b6040513d5f823e3d90fd5b6001600160a01b0390911681526040810192916102599160200152565b5061148a6002610cef565b9061149761115083611410565b6114a96114a4600161142c565b610a0a565b9060206114b560405190565b6321364bb960e21b81526001600160a01b038316600482015292839060249082905f905af19182156115c0575f9261158f575b506114f25f61049b565b821461156f5760039061150d61150884846104a8565b610cef565b611519610ff05f61049b565b0361154a578361153a8461026f95946115358461153f96611ab1565b6104a8565b61107c565b61153a8360046104a8565b61155b6115085f94610cbe946104a8565b633c2ea00d60e11b84529060048401611462565b6317b48edd60e11b5f9081526001600160a01b039091166004526024035ffd5b6115b291925060203d6020116115b9575b6115aa8183610596565b810190611443565b905f6114e8565b503d6115a0565b611457565b61026f905f6113c9565b906104b290610a0a565b5f5160206126865f395f51905f526115f05f610c14565b6001600160a01b0381166001600160a01b0384161461161a575061026f91600361150892016115cf565b6322718ad960e21b5f9081526001600160a01b039091166004526024035ffd5b6116637f65d7a28e3265b37a6474929f336521b332c1681b933f6cb9f3376673440d862a6118e9565b610259610259611b11565b61025961163a565b61026f915f61169e6116a4936116895f90565b50825f5160206126a65f395f51905f52610d1a565b016115cf565b6113a0565b61026f60015f5160206126865f395f51905f52610be3565b610259906116d0610d37610946565b6116dc6103545f610c14565b6001600160a01b0382161461115757610fa78161037b6111397fcc6c7fe8024c44aacbd64a60ef19ad3fee30550d8f00fbee772c0eb14c9d2cef94610a0a565b610259906116c1565b610259919033611b19565b90610259939291611742838383610c53565b33611c1f565b6102f16117609260209261175a815190565b94859290565b938491016102b2565b6117779061026f9392611748565b90611748565b61179d92916102599161178f60405190565b948592602084019283611769565b90810382520383610596565b6117b281611866565b506117bb611d2e565b80516117c9610ff05f61049b565b11156117e1576117db61026f92611d82565b9061177d565b505061026f610dcb565b90610259916117fc610d3782610cf9565b90610d46916119a3565b90610259916117eb565b61026f916118386116a4926118225f90565b5060055f5160206126865f395f51905f5261169e565b6115cf565b637965db0b60e01b6001600160e01b031982161490811561185c575090565b61026f9150611e13565b61186f81611e5e565b9061187c6103545f610c14565b6001600160a01b0383161461188f575090565b637e27328960e01b5f908152600491909152602490fd5b6118cc61026f916118b45f90565b5060045f5160206126865f395f51905f525b016104a8565b61142c565b9160019161025993611e82565b61026f929190611fe1565b610259903390611fed565b9060ff90610e34565b9061190d61026f610e6c92151590565b82546118f4565b5f5160206126a65f395f51905f5261192f610ee78484611676565b1561199c57600161194a845f61169e868261194f9701610ce2565b6118fd565b61196961196361195d339390565b93610a0a565b91610a0a565b917f2f8788117e7eff1d82e926ec794901d17c78024a50270940304540a733656f0d61199460405190565b5f90a4600190565b5050505f90565b5f5160206126a65f395f51905f526119bb8383611676565b1561199c575f61194a848261169e86826119d59701610ce2565b6119e361196361195d339390565b917ff6391f5c32d9c69d2a47ea670b442974b53935d1edc7fd64eb21e047a839171b61199460405190565b611a1661201b565b610259611a335f805f5160206126c65f395f51905f525b016118fd565b7f5db9ee0a495bf2e6ff9c91a7834c1ba4fdd244a5e8aa4e537bd38aeae4b073aa610fa73361037b565b610259611a0e565b9061025991611a7261203d565b9061025991612166565b9061025991611a65565b611a8e61203d565b610259610259612193565b610259611a86565b61025961203d565b610259611aa1565b61025991611abd610dcb565b9161219b565b611acb6121bb565b610259611ae760015f5f5160206126c65f395f51905f52611a2d565b7f62e78cea01bee320cd4e420270b5ea74000d11b0c9f74754ebdbfc544b05a258610fa73361037b565b610259611ac3565b5f5160206126865f395f51905f52611b336103545f610c14565b6001600160a01b03841614611b9157611b8261195d836114a48761194a886118387f17307eab39ab6107e8899845ad3d59bd9653f200f220920489ca2b5937696c31996005611b8c9a016115cf565b9361029560405190565b0390a3565b630b61174360e31b5f9081526001600160a01b038416600452602490fd5b9050519061025982610235565b906020828203126102485761026f91611baf565b6001600160a01b03918216815291166020820152604081019190915260806060820181905261026f929101906102bd565b3d15611c1a57611c103d6105ee565b903d5f602084013e565b606090565b9392909193843b611c32610ff05f61049b565b11611c3f575b5050505050565b6020925f611c4f6114a488610a0a565b92611c76611c5c60405190565b97889687958694630a85bd0160e11b865260048601611bd0565b03925af15f9181611cfd575b50611cd85750611c97565b5f80808080611c38565b611c9f611c01565b8051611cad610ff05f61049b565b03611cd057633250574960e11b5f9081526001600160a01b038316600452602490fd5b805190602001fd5b611cf2630a85bd0160e11b5b916001600160e01b03191690565b03610cc25750611c8d565b611d2091925060203d602011611d27575b611d188183610596565b810190611bbc565b905f611c82565b503d611d0e565b61026f5f610bc7565b369037565b90610259611d52611d4c846105ee565b936105d1565b601f190160208401611d37565b634e487b7160e01b5f52601260045260245ffd5b8115611d7d570490565b611d5f565b611d8b816121da565b90611d9c6001926102f1600161049b565b9180611da784611d3c565b936020018401905b611dba575b50505090565b8115611e0e57611df3905f1901926f181899199a1a9b1b9c1cb0b131b232b360811b600a82061a8453611ded600a61049b565b90611d73565b9081611e01610ff05f61049b565b14611e0e57909181611daf565b611db4565b6380ac58cd60e01b6001600160e01b0319821614908115611e43575b8115611e39575090565b61026f915061237b565b6001600160e01b03198116635b5e139f60e01b149150611e2f565b6118cc61026f91611e6c5f90565b5060025f5160206126865f395f51905f526118c6565b9193925f5160206126865f395f51905f5290808115611fa8575b611eba575b50610259939450906004611eb592016104a8565b61105c565b611ec383611866565b90611ed06103545f610c14565b6001600160a01b038816141580611f8c575b80611f79575b611f5b5761025995965091600491611eb59493611f0c575b50919250859450611ea1565b611f1590610a0a565b611f1e86610a0a565b611f278561049b565b917f8c5be1e5ebec7d5bd14f71427d1e84f3dd0314c0f7b2291e5b200ac8c7c3b925611f5260405190565b5f90a45f611f00565b63a9fbf51f60e01b5f9081526001600160a01b038816600452602490fd5b50611f87610ee78884611810565b611ee8565b506001600160a01b0387166001600160a01b0383161415611ee2565b50611fb56103545f610c14565b6001600160a01b0387161415611e9c565b9061026f939291611fd56121bb565b5061026f92919061238f565b61026f9291905f611fc6565b90611ffb610ee78284611676565b612003575050565b63e2517d3f60e01b5f90815291610cbe916004611462565b612026610ee76113aa565b61202c57565b638dfc202b60e01b5f908152600490fd5b612048610ee76124d7565b61204e57565b631afcd79f60e31b5f908152600490fd5b906102599161206c61203d565b61213b565b9061207a815190565b9067ffffffffffffffff82116105b857612098826112468554610752565b602090601f83116001146120d057610e6c92915f91836120c55750505f19600883021c1916906002021790565b015190505f80611266565b601f198316916120e3855f5260205f2090565b925f5b818110612119575091600293918560019694106121065750505002019055565b01515f196008601f8516021c19166112cb565b919360206001819287870151815501950192016120e6565b9061025991612071565b906001610259926121606121595f5160206126865f395f51905f5290565b9182612131565b01612131565b906102599161205f565b61217861203d565b6102596102595f805f5160206126c65f395f51905f52611a2d565b610259612170565b9061025992916121ab8282612500565b336121b55f610c14565b90611c1f565b6121c36113aa565b6121c957565b63d93c066560e01b5f908152600490fd5b6121e35f61049b565b907a184f03e93ff9f4daa797ed6e38ed64bf6a1f0100000000000000006122098161049b565b821015612359575b506d04ee2d6d415b85acef810000000061222a8161049b565b821015612337575b50662386f26fc100006122448161049b565b821015612315575b506305f5e10061225b8161049b565b8210156122f3575b506127106122708161049b565b8210156122d1575b50612283606461049b565b8110156122af575b612298610ff0600a61049b565b10156122a15790565b61026f906102f1600161049b565b6122c06122cb91611ded606461049b565b916102f1600261049b565b9061228b565b6122ec91611ded6122e19261049b565b916102f1600461049b565b905f612278565b61230e91611ded6123039261049b565b916102f1600861049b565b905f612263565b61233091611ded6123259261049b565b916102f1601061049b565b905f61224c565b61235291611ded6123479261049b565b916102f1602061049b565b905f612232565b61237491611ded6123699261049b565b916102f1604061049b565b905f612211565b61238b6301ffc9a760e01b611ce4565b1490565b9061241682611eb58360025f5160206126865f395f51905f526124016123b484611e5e565b996123be5f610c14565b90856001600160a01b0383166001600160a01b038316036124c6575b50506001600160a01b0381166001600160a01b038c160361248e576001600160a01b031690565b6001600160a01b0386160361245c57016104a8565b61242b61242561195d85610a0a565b9161049b565b917fddf252ad1be2c89b69c2b068fc378daa952ba7f163c4a11628f55a4df523b3ef61245660405190565b5f90a490565b612489612469600161049b565b61248361247988600386016115cf565b916102f183610cef565b9061107c565b6118c6565b61249a5f828781611e82565b6103548b6124836124b86124ae600161049b565b92600388016115cf565b916124c283610cef565b0390565b6124d0918d612590565b5f856123da565b61026f7ff0c57e16840df040f15088dc2f81fe391c3923bec73e23a9662efc9c229c6a00610df5565b9061250a5f610c14565b916001600160a01b0383166001600160a01b038216146125725761252f9183916118de565b61254a6001600160a01b0383165b916001600160a01b031690565b036125525750565b6339e3563760e11b5f9081526001600160a01b039091166004526024035ffd5b633250574960e11b5f9081526001600160a01b038416600452602490fd5b9190916125a1610ee78385846125f2565b6125aa57505050565b5f93506125bc61253d61035486610c14565b1483146125db57637e27328960e01b835260048301525060248101035ffd5b63177e802f60e01b8352610cbe9160048401611462565b906125ff6103545f610c14565b6001600160a01b038216141592836126175750505090565b919250906001600160a01b0382166001600160a01b03841614928315612671575b50821561264a575b50505f8080611db4565b61266991925061265c61253d916118a6565b926001600160a01b031690565b145f80612640565b61267e9193508290611810565b915f61263856fe80bb2b638cc20bc4d0a60d66940f3ab4a00c1d7b313497ca82fb0b4ab007930002dd7bc7dec4dceedda775e58dd541e08a116c6c53815c0bd028192f7b626800cd5ed15c6e187e77e9aee88184c21f4f2182ab5827cb3b7e07fbedcd63f03300a2646970667358221220e98ae36bcb1fab32acbd4668f575e296beadcc291672ee64303d05a080ea805d64736f6c634300081c0033",
    "linkReferences": {},
    "deployedLinkReferences": {}
}